{
  "_format": "hh-sol-artifact-1",
  "contractName": "ProjectName",
  "sourceName": "contracts/PolyTix.sol",
  "abi": [
    {
      "inputs": [
        {
          "internalType": "string",
          "name": "nftName",
          "type": "string"
        },
        {
          "internalType": "string",
          "name": "nftShort",
          "type": "string"
        }
      ],
      "stateMutability": "nonpayable",
      "type": "constructor"
    },
    {
      "anonymous": false,
      "inputs": [
        {
          "indexed": true,
          "internalType": "address",
          "name": "owner",
          "type": "address"
        },
        {
          "indexed": true,
          "internalType": "address",
          "name": "approved",
          "type": "address"
        },
        {
          "indexed": true,
          "internalType": "uint256",
          "name": "tokenId",
          "type": "uint256"
        }
      ],
      "name": "Approval",
      "type": "event"
    },
    {
      "anonymous": false,
      "inputs": [
        {
          "indexed": true,
          "internalType": "address",
          "name": "owner",
          "type": "address"
        },
        {
          "indexed": true,
          "internalType": "address",
          "name": "operator",
          "type": "address"
        },
        {
          "indexed": false,
          "internalType": "bool",
          "name": "approved",
          "type": "bool"
        }
      ],
      "name": "ApprovalForAll",
      "type": "event"
    },
    {
      "anonymous": false,
      "inputs": [
        {
          "indexed": true,
          "internalType": "address",
          "name": "previousOwner",
          "type": "address"
        },
        {
          "indexed": true,
          "internalType": "address",
          "name": "newOwner",
          "type": "address"
        }
      ],
      "name": "OwnershipTransferred",
      "type": "event"
    },
    {
      "anonymous": false,
      "inputs": [
        {
          "indexed": true,
          "internalType": "address",
          "name": "from",
          "type": "address"
        },
        {
          "indexed": true,
          "internalType": "address",
          "name": "to",
          "type": "address"
        },
        {
          "indexed": true,
          "internalType": "uint256",
          "name": "tokenId",
          "type": "uint256"
        }
      ],
      "name": "Transfer",
      "type": "event"
    },
    {
      "stateMutability": "payable",
      "type": "fallback"
    },
    {
      "inputs": [
        {
          "internalType": "address",
          "name": "to",
          "type": "address"
        },
        {
          "internalType": "uint256",
          "name": "tokenId",
          "type": "uint256"
        }
      ],
      "name": "approve",
      "outputs": [],
      "stateMutability": "nonpayable",
      "type": "function"
    },
    {
      "inputs": [
        {
          "internalType": "address",
          "name": "owner",
          "type": "address"
        }
      ],
      "name": "balanceOf",
      "outputs": [
        {
          "internalType": "uint256",
          "name": "",
          "type": "uint256"
        }
      ],
      "stateMutability": "view",
      "type": "function"
    },
    {
      "inputs": [],
      "name": "baseTokenURI",
      "outputs": [
        {
          "internalType": "string",
          "name": "",
          "type": "string"
        }
      ],
      "stateMutability": "view",
      "type": "function"
    },
    {
      "inputs": [
        {
          "internalType": "uint256",
          "name": "tokenId",
          "type": "uint256"
        }
      ],
      "name": "burn",
      "outputs": [],
      "stateMutability": "nonpayable",
      "type": "function"
    },
    {
      "inputs": [],
      "name": "burnToken",
      "outputs": [
        {
          "internalType": "uint256",
          "name": "",
          "type": "uint256"
        }
      ],
      "stateMutability": "view",
      "type": "function"
    },
    {
      "inputs": [
        {
          "internalType": "bytes",
          "name": "",
          "type": "bytes"
        }
      ],
      "name": "checkUpkeep",
      "outputs": [
        {
          "internalType": "bool",
          "name": "upkeepNeeded",
          "type": "bool"
        },
        {
          "internalType": "bytes",
          "name": "",
          "type": "bytes"
        }
      ],
      "stateMutability": "view",
      "type": "function"
    },
    {
      "inputs": [
        {
          "internalType": "uint256",
          "name": "tokenId",
          "type": "uint256"
        }
      ],
      "name": "getApproved",
      "outputs": [
        {
          "internalType": "address",
          "name": "",
          "type": "address"
        }
      ],
      "stateMutability": "view",
      "type": "function"
    },
    {
      "inputs": [
        {
          "internalType": "uint256",
          "name": "tokenId",
          "type": "uint256"
        }
      ],
      "name": "getTicketActiveDuration",
      "outputs": [
        {
          "internalType": "uint256",
          "name": "",
          "type": "uint256"
        }
      ],
      "stateMutability": "view",
      "type": "function"
    },
    {
      "inputs": [],
      "name": "interval",
      "outputs": [
        {
          "internalType": "uint256",
          "name": "",
          "type": "uint256"
        }
      ],
      "stateMutability": "view",
      "type": "function"
    },
    {
      "inputs": [
        {
          "internalType": "address",
          "name": "owner",
          "type": "address"
        },
        {
          "internalType": "address",
          "name": "operator",
          "type": "address"
        }
      ],
      "name": "isApprovedForAll",
      "outputs": [
        {
          "internalType": "bool",
          "name": "",
          "type": "bool"
        }
      ],
      "stateMutability": "view",
      "type": "function"
    },
    {
      "inputs": [],
      "name": "lastTimeStamp",
      "outputs": [
        {
          "internalType": "uint256",
          "name": "",
          "type": "uint256"
        }
      ],
      "stateMutability": "view",
      "type": "function"
    },
    {
      "inputs": [],
      "name": "name",
      "outputs": [
        {
          "internalType": "string",
          "name": "",
          "type": "string"
        }
      ],
      "stateMutability": "view",
      "type": "function"
    },
    {
      "inputs": [],
      "name": "owner",
      "outputs": [
        {
          "internalType": "address",
          "name": "",
          "type": "address"
        }
      ],
      "stateMutability": "view",
      "type": "function"
    },
    {
      "inputs": [
        {
          "internalType": "uint256",
          "name": "tokenId",
          "type": "uint256"
        }
      ],
      "name": "ownerOf",
      "outputs": [
        {
          "internalType": "address",
          "name": "",
          "type": "address"
        }
      ],
      "stateMutability": "view",
      "type": "function"
    },
    {
      "inputs": [
        {
          "internalType": "bytes",
          "name": "performData",
          "type": "bytes"
        }
      ],
      "name": "performUpkeep",
      "outputs": [],
      "stateMutability": "nonpayable",
      "type": "function"
    },
    {
      "inputs": [],
      "name": "receiveEther",
      "outputs": [],
      "stateMutability": "payable",
      "type": "function"
    },
    {
      "inputs": [],
      "name": "renounceOwnership",
      "outputs": [],
      "stateMutability": "nonpayable",
      "type": "function"
    },
    {
      "inputs": [
        {
          "internalType": "string",
          "name": "eventName",
          "type": "string"
        },
        {
          "internalType": "address payable",
          "name": "to",
          "type": "address"
        }
      ],
      "name": "safeMint",
      "outputs": [],
      "stateMutability": "payable",
      "type": "function"
    },
    {
      "inputs": [
        {
          "internalType": "address",
          "name": "from",
          "type": "address"
        },
        {
          "internalType": "address",
          "name": "to",
          "type": "address"
        },
        {
          "internalType": "uint256",
          "name": "tokenId",
          "type": "uint256"
        }
      ],
      "name": "safeTransferFrom",
      "outputs": [],
      "stateMutability": "nonpayable",
      "type": "function"
    },
    {
      "inputs": [
        {
          "internalType": "address",
          "name": "from",
          "type": "address"
        },
        {
          "internalType": "address",
          "name": "to",
          "type": "address"
        },
        {
          "internalType": "uint256",
          "name": "tokenId",
          "type": "uint256"
        },
        {
          "internalType": "bytes",
          "name": "data",
          "type": "bytes"
        }
      ],
      "name": "safeTransferFrom",
      "outputs": [],
      "stateMutability": "nonpayable",
      "type": "function"
    },
    {
      "inputs": [
        {
          "internalType": "address",
          "name": "operator",
          "type": "address"
        },
        {
          "internalType": "bool",
          "name": "approved",
          "type": "bool"
        }
      ],
      "name": "setApprovalForAll",
      "outputs": [],
      "stateMutability": "nonpayable",
      "type": "function"
    },
    {
      "inputs": [
        {
          "internalType": "bytes4",
          "name": "interfaceId",
          "type": "bytes4"
        }
      ],
      "name": "supportsInterface",
      "outputs": [
        {
          "internalType": "bool",
          "name": "",
          "type": "bool"
        }
      ],
      "stateMutability": "view",
      "type": "function"
    },
    {
      "inputs": [],
      "name": "symbol",
      "outputs": [
        {
          "internalType": "string",
          "name": "",
          "type": "string"
        }
      ],
      "stateMutability": "view",
      "type": "function"
    },
    {
      "inputs": [
        {
          "internalType": "uint256",
          "name": "",
          "type": "uint256"
        }
      ],
      "name": "tokenIdToNftInfo",
      "outputs": [
        {
          "internalType": "string",
          "name": "name",
          "type": "string"
        },
        {
          "internalType": "uint256",
          "name": "price",
          "type": "uint256"
        },
        {
          "internalType": "string",
          "name": "date",
          "type": "string"
        },
        {
          "internalType": "string",
          "name": "location",
          "type": "string"
        },
        {
          "internalType": "string",
          "name": "descripton",
          "type": "string"
        },
        {
          "internalType": "string",
          "name": "typeOfTicket",
          "type": "string"
        },
        {
          "internalType": "uint256",
          "name": "startTime",
          "type": "uint256"
        },
        {
          "internalType": "uint256",
          "name": "EndTime",
          "type": "uint256"
        },
        {
          "internalType": "uint256",
          "name": "duration",
          "type": "uint256"
        },
        {
          "internalType": "bool",
          "name": "soldOnce",
          "type": "bool"
        }
      ],
      "stateMutability": "view",
      "type": "function"
    },
    {
      "inputs": [
        {
          "internalType": "uint256",
          "name": "tokenId",
          "type": "uint256"
        }
      ],
      "name": "tokenURI",
      "outputs": [
        {
          "internalType": "string",
          "name": "",
          "type": "string"
        }
      ],
      "stateMutability": "view",
      "type": "function"
    },
    {
      "inputs": [
        {
          "internalType": "address payable",
          "name": "recipient",
          "type": "address"
        },
        {
          "internalType": "uint256",
          "name": "_interval",
          "type": "uint256"
        }
      ],
      "name": "transferBalance",
      "outputs": [],
      "stateMutability": "nonpayable",
      "type": "function"
    },
    {
      "inputs": [
        {
          "internalType": "address",
          "name": "from",
          "type": "address"
        },
        {
          "internalType": "address",
          "name": "to",
          "type": "address"
        },
        {
          "internalType": "uint256",
          "name": "tokenId",
          "type": "uint256"
        }
      ],
      "name": "transferFrom",
      "outputs": [],
      "stateMutability": "nonpayable",
      "type": "function"
    },
    {
      "inputs": [
        {
          "internalType": "address",
          "name": "newOwner",
          "type": "address"
        }
      ],
      "name": "transferOwnership",
      "outputs": [],
      "stateMutability": "nonpayable",
      "type": "function"
    },
    {
      "stateMutability": "payable",
      "type": "receive"
    }
  ],
  "bytecode": "0x608060405260405180610780016040528061075b8152602001620045b561075b9139600d908051906020019062000038929190620001e6565b506040518060400160405280600d81526020017f3c2f746578743e3c2f7376673e00000000000000000000000000000000000000815250600e908051906020019062000086929190620001e6565b503480156200009457600080fd5b5060405162004d1038038062004d108339818101604052810190620000ba919062000433565b81818160009080519060200190620000d4929190620001e6565b508060019080519060200190620000ed929190620001e6565b50505062000110620001046200011860201b60201c565b6200012060201b60201c565b50506200051c565b600033905090565b6000600760009054906101000a900473ffffffffffffffffffffffffffffffffffffffff16905081600760006101000a81548173ffffffffffffffffffffffffffffffffffffffff021916908373ffffffffffffffffffffffffffffffffffffffff1602179055508173ffffffffffffffffffffffffffffffffffffffff168173ffffffffffffffffffffffffffffffffffffffff167f8be0079c531659141344cd1fd0a4f28419497f9722a3daafe3b4186f6b6457e060405160405180910390a35050565b828054620001f490620004e7565b90600052602060002090601f01602090048101928262000218576000855562000264565b82601f106200023357805160ff191683800117855562000264565b8280016001018555821562000264579182015b828111156200026357825182559160200191906001019062000246565b5b50905062000273919062000277565b5090565b5b808211156200029257600081600090555060010162000278565b5090565b6000604051905090565b600080fd5b600080fd5b600080fd5b600080fd5b6000601f19601f8301169050919050565b7f4e487b7100000000000000000000000000000000000000000000000000000000600052604160045260246000fd5b620002ff82620002b4565b810181811067ffffffffffffffff82111715620003215762000320620002c5565b5b80604052505050565b60006200033662000296565b9050620003448282620002f4565b919050565b600067ffffffffffffffff821115620003675762000366620002c5565b5b6200037282620002b4565b9050602081019050919050565b60005b838110156200039f57808201518184015260208101905062000382565b83811115620003af576000848401525b50505050565b6000620003cc620003c68462000349565b6200032a565b905082815260208101848484011115620003eb57620003ea620002af565b5b620003f88482856200037f565b509392505050565b600082601f830112620004185762000417620002aa565b5b81516200042a848260208601620003b5565b91505092915050565b600080604083850312156200044d576200044c620002a0565b5b600083015167ffffffffffffffff8111156200046e576200046d620002a5565b5b6200047c8582860162000400565b925050602083015167ffffffffffffffff811115620004a0576200049f620002a5565b5b620004ae8582860162000400565b9150509250929050565b7f4e487b7100000000000000000000000000000000000000000000000000000000600052602260045260246000fd5b600060028204905060018216806200050057607f821691505b602082108103620005165762000515620004b8565b5b50919050565b614089806200052c6000396000f3fe6080604052600436106101bb5760003560e01c8063715018a6116100ec578063c6f057711161008a578063e985e9c511610064578063e985e9c514610600578063f2fde38b1461063d578063f4fdb0ec14610666578063faa0a264146106a3576101c2565b8063c6f057711461057c578063c87b56dd14610598578063d547cfb7146105d5576101c2565b806395d89b41116100c657806395d89b41146104f5578063a22cb46514610520578063a3912ec814610549578063b88d4fde14610553576101c2565b8063715018a6146104885780638da5cb5b1461049f578063947a36fb146104ca576101c2565b806342966c681161015957806356a6d9ef1161013357806356a6d9ef146103a75780636352211e146103d05780636e04ff0d1461040d57806370a082311461044b576101c2565b806342966c681461030f5780634585e33b14610338578063477b13db14610361576101c2565b8063095ea7b311610195578063095ea7b31461026957806323b872dd146102925780633f3b3b27146102bb57806342842e0e146102e6576101c2565b806301ffc9a7146101c457806306fdde0314610201578063081812fc1461022c576101c2565b366101c257005b005b3480156101d057600080fd5b506101eb60048036038101906101e691906129d1565b6106ce565b6040516101f89190612a19565b60405180910390f35b34801561020d57600080fd5b506102166107b0565b6040516102239190612acd565b60405180910390f35b34801561023857600080fd5b50610253600480360381019061024e9190612b25565b610842565b6040516102609190612b93565b60405180910390f35b34801561027557600080fd5b50610290600480360381019061028b9190612bda565b610888565b005b34801561029e57600080fd5b506102b960048036038101906102b49190612c1a565b61099f565b005b3480156102c757600080fd5b506102d06109ff565b6040516102dd9190612c7c565b60405180910390f35b3480156102f257600080fd5b5061030d60048036038101906103089190612c1a565b610a05565b005b34801561031b57600080fd5b5061033660048036038101906103319190612b25565b610a25565b005b34801561034457600080fd5b5061035f600480360381019061035a9190612cfc565b610a31565b005b34801561036d57600080fd5b5061038860048036038101906103839190612b25565b610a58565b60405161039e9a99989796959493929190612d49565b60405180910390f35b3480156103b357600080fd5b506103ce60048036038101906103c99190612e46565b610d61565b005b3480156103dc57600080fd5b506103f760048036038101906103f29190612b25565b610e08565b6040516104049190612b93565b60405180910390f35b34801561041957600080fd5b50610434600480360381019061042f9190612cfc565b610e8e565b604051610442929190612edb565b60405180910390f35b34801561045757600080fd5b50610472600480360381019061046d9190612f0b565b610ead565b60405161047f9190612c7c565b60405180910390f35b34801561049457600080fd5b5061049d610f64565b005b3480156104ab57600080fd5b506104b4610f78565b6040516104c19190612b93565b60405180910390f35b3480156104d657600080fd5b506104df610fa2565b6040516104ec9190612c7c565b60405180910390f35b34801561050157600080fd5b5061050a610fa8565b6040516105179190612acd565b60405180910390f35b34801561052c57600080fd5b5061054760048036038101906105429190612f64565b61103a565b005b610551611050565b005b34801561055f57600080fd5b5061057a600480360381019061057591906130d4565b611052565b005b610596600480360381019061059191906131f8565b6110b4565b005b3480156105a457600080fd5b506105bf60048036038101906105ba9190612b25565b61117a565b6040516105cc9190612acd565b60405180910390f35b3480156105e157600080fd5b506105ea61128c565b6040516105f79190612acd565b60405180910390f35b34801561060c57600080fd5b5061062760048036038101906106229190613254565b61131a565b6040516106349190612a19565b60405180910390f35b34801561064957600080fd5b50610664600480360381019061065f9190612f0b565b6113ae565b005b34801561067257600080fd5b5061068d60048036038101906106889190612b25565b611431565b60405161069a9190612c7c565b60405180910390f35b3480156106af57600080fd5b506106b86114b7565b6040516106c59190612c7c565b60405180910390f35b60007f80ac58cd000000000000000000000000000000000000000000000000000000007bffffffffffffffffffffffffffffffffffffffffffffffffffffffff1916827bffffffffffffffffffffffffffffffffffffffffffffffffffffffff1916148061079957507f5b5e139f000000000000000000000000000000000000000000000000000000007bffffffffffffffffffffffffffffffffffffffffffffffffffffffff1916827bffffffffffffffffffffffffffffffffffffffffffffffffffffffff1916145b806107a957506107a8826114bd565b5b9050919050565b6060600080546107bf906132c3565b80601f01602080910402602001604051908101604052809291908181526020018280546107eb906132c3565b80156108385780601f1061080d57610100808354040283529160200191610838565b820191906000526020600020905b81548152906001019060200180831161081b57829003601f168201915b5050505050905090565b600061084d82611527565b6004600083815260200190815260200160002060009054906101000a900473ffffffffffffffffffffffffffffffffffffffff169050919050565b600061089382610e08565b90508073ffffffffffffffffffffffffffffffffffffffff168373ffffffffffffffffffffffffffffffffffffffff1603610903576040517f08c379a00000000000000000000000000000000000000000000000000000000081526004016108fa90613366565b60405180910390fd5b8073ffffffffffffffffffffffffffffffffffffffff16610922611572565b73ffffffffffffffffffffffffffffffffffffffff16148061095157506109508161094b611572565b61131a565b5b610990576040517f08c379a0000000000000000000000000000000000000000000000000000000008152600401610987906133f8565b60405180910390fd5b61099a838361157a565b505050565b6109b06109aa611572565b82611633565b6109ef576040517f08c379a00000000000000000000000000000000000000000000000000000000081526004016109e69061348a565b60405180910390fd5b6109fa8383836116c8565b505050565b600c5481565b610a2083838360405180602001604052806000815250611052565b505050565b610a2e816119c1565b50565b600b54600c5442610a4291906134d9565b1115610a5457610a53600a54610a25565b5b5050565b600f602052806000526040600020600091509050806000018054610a7b906132c3565b80601f0160208091040260200160405190810160405280929190818152602001828054610aa7906132c3565b8015610af45780601f10610ac957610100808354040283529160200191610af4565b820191906000526020600020905b815481529060010190602001808311610ad757829003601f168201915b505050505090806001015490806002018054610b0f906132c3565b80601f0160208091040260200160405190810160405280929190818152602001828054610b3b906132c3565b8015610b885780601f10610b5d57610100808354040283529160200191610b88565b820191906000526020600020905b815481529060010190602001808311610b6b57829003601f168201915b505050505090806003018054610b9d906132c3565b80601f0160208091040260200160405190810160405280929190818152602001828054610bc9906132c3565b8015610c165780601f10610beb57610100808354040283529160200191610c16565b820191906000526020600020905b815481529060010190602001808311610bf957829003601f168201915b505050505090806004018054610c2b906132c3565b80601f0160208091040260200160405190810160405280929190818152602001828054610c57906132c3565b8015610ca45780601f10610c7957610100808354040283529160200191610ca4565b820191906000526020600020905b815481529060010190602001808311610c8757829003601f168201915b505050505090806005018054610cb9906132c3565b80601f0160208091040260200160405190810160405280929190818152602001828054610ce5906132c3565b8015610d325780601f10610d0757610100808354040283529160200191610d32565b820191906000526020600020905b815481529060010190602001808311610d1557829003601f168201915b5050505050908060060154908060070154908060080154908060090160009054906101000a900460ff1690508a565b600047905060008111610da9576040517f08c379a0000000000000000000000000000000000000000000000000000000008152600401610da090613559565b60405180910390fd5b8273ffffffffffffffffffffffffffffffffffffffff166108fc829081150290604051600060405180830381858888f19350505050158015610def573d6000803e3d6000fd5b50603c82610dfd9190613579565b600b81905550505050565b600080610e1483611a14565b9050600073ffffffffffffffffffffffffffffffffffffffff168173ffffffffffffffffffffffffffffffffffffffff1603610e85576040517f08c379a0000000000000000000000000000000000000000000000000000000008152600401610e7c9061361f565b60405180910390fd5b80915050919050565b60006060600b54600c5442610ea391906134d9565b1191509250929050565b60008073ffffffffffffffffffffffffffffffffffffffff168273ffffffffffffffffffffffffffffffffffffffff1603610f1d576040517f08c379a0000000000000000000000000000000000000000000000000000000008152600401610f14906136b1565b60405180910390fd5b600360008373ffffffffffffffffffffffffffffffffffffffff1673ffffffffffffffffffffffffffffffffffffffff168152602001908152602001600020549050919050565b610f6c611a51565b610f766000611acf565b565b6000600760009054906101000a900473ffffffffffffffffffffffffffffffffffffffff16905090565b600b5481565b606060018054610fb7906132c3565b80601f0160208091040260200160405190810160405280929190818152602001828054610fe3906132c3565b80156110305780601f1061100557610100808354040283529160200191611030565b820191906000526020600020905b81548152906001019060200180831161101357829003601f168201915b5050505050905090565b61104c611045611572565b8383611b95565b5050565b565b61106361105d611572565b83611633565b6110a2576040517f08c379a00000000000000000000000000000000000000000000000000000000081526004016110999061348a565b60405180910390fd5b6110ae84848484611d01565b50505050565b6000600d83600e6040516020016110cd939291906137a1565b604051602081830303815290604052905060006110ea6008611d5d565b90506000611120856110fb85611d6b565b60405160200161110c929190613902565b604051602081830303815290604052611d6b565b90506000816040516020016111359190613993565b60405160208183030381529060405290506111506008611f02565b61115a8584611f18565b6111648382611f36565b42600c8190555082600a81905550505050505050565b606061118582611527565b60006006600084815260200190815260200160002080546111a5906132c3565b80601f01602080910402602001604051908101604052809291908181526020018280546111d1906132c3565b801561121e5780601f106111f35761010080835404028352916020019161121e565b820191906000526020600020905b81548152906001019060200180831161120157829003601f168201915b50505050509050600061122f611faa565b90506000815103611244578192505050611287565b6000825111156112795780826040516020016112619291906139b5565b60405160208183030381529060405292505050611287565b6112828461203c565b925050505b919050565b60098054611299906132c3565b80601f01602080910402602001604051908101604052809291908181526020018280546112c5906132c3565b80156113125780601f106112e757610100808354040283529160200191611312565b820191906000526020600020905b8154815290600101906020018083116112f557829003601f168201915b505050505081565b6000600560008473ffffffffffffffffffffffffffffffffffffffff1673ffffffffffffffffffffffffffffffffffffffff16815260200190815260200160002060008373ffffffffffffffffffffffffffffffffffffffff1673ffffffffffffffffffffffffffffffffffffffff16815260200190815260200160002060009054906101000a900460ff16905092915050565b6113b6611a51565b600073ffffffffffffffffffffffffffffffffffffffff168173ffffffffffffffffffffffffffffffffffffffff1603611425576040517f08c379a000000000000000000000000000000000000000000000000000000000815260040161141c90613a4b565b60405180910390fd5b61142e81611acf565b50565b600081600f60008281526020019081526020016000206007015442111561148d576040517f08c379a000000000000000000000000000000000000000000000000000000000815260040161148490613ab7565b60405180910390fd5b42600f6000858152602001908152602001600020600701546114af91906134d9565b915050919050565b600a5481565b60007f01ffc9a7000000000000000000000000000000000000000000000000000000007bffffffffffffffffffffffffffffffffffffffffffffffffffffffff1916827bffffffffffffffffffffffffffffffffffffffffffffffffffffffff1916149050919050565b611530816120a4565b61156f576040517f08c379a00000000000000000000000000000000000000000000000000000000081526004016115669061361f565b60405180910390fd5b50565b600033905090565b816004600083815260200190815260200160002060006101000a81548173ffffffffffffffffffffffffffffffffffffffff021916908373ffffffffffffffffffffffffffffffffffffffff160217905550808273ffffffffffffffffffffffffffffffffffffffff166115ed83610e08565b73ffffffffffffffffffffffffffffffffffffffff167f8c5be1e5ebec7d5bd14f71427d1e84f3dd0314c0f7b2291e5b200ac8c7c3b92560405160405180910390a45050565b60008061163f83610e08565b90508073ffffffffffffffffffffffffffffffffffffffff168473ffffffffffffffffffffffffffffffffffffffff1614806116815750611680818561131a565b5b806116bf57508373ffffffffffffffffffffffffffffffffffffffff166116a784610842565b73ffffffffffffffffffffffffffffffffffffffff16145b91505092915050565b8273ffffffffffffffffffffffffffffffffffffffff166116e882610e08565b73ffffffffffffffffffffffffffffffffffffffff161461173e576040517f08c379a000000000000000000000000000000000000000000000000000000000815260040161173590613b49565b60405180910390fd5b600073ffffffffffffffffffffffffffffffffffffffff168273ffffffffffffffffffffffffffffffffffffffff16036117ad576040517f08c379a00000000000000000000000000000000000000000000000000000000081526004016117a490613bdb565b60405180910390fd5b6117ba83838360016120e5565b8273ffffffffffffffffffffffffffffffffffffffff166117da82610e08565b73ffffffffffffffffffffffffffffffffffffffff1614611830576040517f08c379a000000000000000000000000000000000000000000000000000000000815260040161182790613b49565b60405180910390fd5b6004600082815260200190815260200160002060006101000a81549073ffffffffffffffffffffffffffffffffffffffff02191690556001600360008573ffffffffffffffffffffffffffffffffffffffff1673ffffffffffffffffffffffffffffffffffffffff168152602001908152602001600020600082825403925050819055506001600360008473ffffffffffffffffffffffffffffffffffffffff1673ffffffffffffffffffffffffffffffffffffffff16815260200190815260200160002060008282540192505081905550816002600083815260200190815260200160002060006101000a81548173ffffffffffffffffffffffffffffffffffffffff021916908373ffffffffffffffffffffffffffffffffffffffff160217905550808273ffffffffffffffffffffffffffffffffffffffff168473ffffffffffffffffffffffffffffffffffffffff167fddf252ad1be2c89b69c2b068fc378daa952ba7f163c4a11628f55a4df523b3ef60405160405180910390a46119bc83838360016120eb565b505050565b6119ca816120f1565b60006006600083815260200190815260200160002080546119ea906132c3565b905014611a1157600660008281526020019081526020016000206000611a109190612882565b5b50565b60006002600083815260200190815260200160002060009054906101000a900473ffffffffffffffffffffffffffffffffffffffff169050919050565b611a59611572565b73ffffffffffffffffffffffffffffffffffffffff16611a77610f78565b73ffffffffffffffffffffffffffffffffffffffff1614611acd576040517f08c379a0000000000000000000000000000000000000000000000000000000008152600401611ac490613c47565b60405180910390fd5b565b6000600760009054906101000a900473ffffffffffffffffffffffffffffffffffffffff16905081600760006101000a81548173ffffffffffffffffffffffffffffffffffffffff021916908373ffffffffffffffffffffffffffffffffffffffff1602179055508173ffffffffffffffffffffffffffffffffffffffff168173ffffffffffffffffffffffffffffffffffffffff167f8be0079c531659141344cd1fd0a4f28419497f9722a3daafe3b4186f6b6457e060405160405180910390a35050565b8173ffffffffffffffffffffffffffffffffffffffff168373ffffffffffffffffffffffffffffffffffffffff1603611c03576040517f08c379a0000000000000000000000000000000000000000000000000000000008152600401611bfa90613cb3565b60405180910390fd5b80600560008573ffffffffffffffffffffffffffffffffffffffff1673ffffffffffffffffffffffffffffffffffffffff16815260200190815260200160002060008473ffffffffffffffffffffffffffffffffffffffff1673ffffffffffffffffffffffffffffffffffffffff16815260200190815260200160002060006101000a81548160ff0219169083151502179055508173ffffffffffffffffffffffffffffffffffffffff168373ffffffffffffffffffffffffffffffffffffffff167f17307eab39ab6107e8899845ad3d59bd9653f200f220920489ca2b5937696c3183604051611cf49190612a19565b60405180910390a3505050565b611d0c8484846116c8565b611d188484848461223f565b611d57576040517f08c379a0000000000000000000000000000000000000000000000000000000008152600401611d4e90613d45565b60405180910390fd5b50505050565b600081600001549050919050565b606060008251905060008103611d935760405180602001604052806000815250915050611efd565b60006003600283611da49190613d65565b611dae9190613dea565b6004611dba9190613579565b90506000602082611dcb9190613d65565b67ffffffffffffffff811115611de457611de3612fa9565b5b6040519080825280601f01601f191660200182016040528015611e165781602001600182028036833780820191505090505b5090506000604051806060016040528060408152602001614014604091399050600181016020830160005b86811015611eba5760038101905062ffffff818a015116603f8160121c168401518060081b905060ff603f83600c1c1686015116810190508060081b905060ff603f8360061c1686015116810190508060081b905060ff603f831686015116810190508060e01b90508084526004840193505050611e41565b506003860660018114611ed45760028114611ee457611eef565b613d3d60f01b6002830352611eef565b603d60f81b60018303525b508484525050819450505050505b919050565b6001816000016000828254019250508190555050565b611f328282604051806020016040528060008152506123c6565b5050565b611f3f826120a4565b611f7e576040517f08c379a0000000000000000000000000000000000000000000000000000000008152600401611f7590613e8d565b60405180910390fd5b80600660008481526020019081526020016000209080519060200190611fa59291906128c2565b505050565b606060098054611fb9906132c3565b80601f0160208091040260200160405190810160405280929190818152602001828054611fe5906132c3565b80156120325780601f1061200757610100808354040283529160200191612032565b820191906000526020600020905b81548152906001019060200180831161201557829003601f168201915b5050505050905090565b606061204782611527565b6000612051611faa565b90506000815111612071576040518060200160405280600081525061209c565b8061207b84612421565b60405160200161208c9291906139b5565b6040516020818303038152906040525b915050919050565b60008073ffffffffffffffffffffffffffffffffffffffff166120c683611a14565b73ffffffffffffffffffffffffffffffffffffffff1614159050919050565b50505050565b50505050565b60006120fc82610e08565b905061210c8160008460016120e5565b61211582610e08565b90506004600083815260200190815260200160002060006101000a81549073ffffffffffffffffffffffffffffffffffffffff02191690556001600360008373ffffffffffffffffffffffffffffffffffffffff1673ffffffffffffffffffffffffffffffffffffffff168152602001908152602001600020600082825403925050819055506002600083815260200190815260200160002060006101000a81549073ffffffffffffffffffffffffffffffffffffffff021916905581600073ffffffffffffffffffffffffffffffffffffffff168273ffffffffffffffffffffffffffffffffffffffff167fddf252ad1be2c89b69c2b068fc378daa952ba7f163c4a11628f55a4df523b3ef60405160405180910390a461223b8160008460016120eb565b5050565b60006122608473ffffffffffffffffffffffffffffffffffffffff166124ef565b156123b9578373ffffffffffffffffffffffffffffffffffffffff1663150b7a02612289611572565b8786866040518563ffffffff1660e01b81526004016122ab9493929190613ead565b6020604051808303816000875af19250505080156122e757506040513d601f19601f820116820180604052508101906122e49190613f0e565b60015b612369573d8060008114612317576040519150601f19603f3d011682016040523d82523d6000602084013e61231c565b606091505b506000815103612361576040517f08c379a000000000000000000000000000000000000000000000000000000000815260040161235890613d45565b60405180910390fd5b805181602001fd5b63150b7a0260e01b7bffffffffffffffffffffffffffffffffffffffffffffffffffffffff1916817bffffffffffffffffffffffffffffffffffffffffffffffffffffffff1916149150506123be565b600190505b949350505050565b6123d08383612512565b6123dd600084848461223f565b61241c576040517f08c379a000000000000000000000000000000000000000000000000000000000815260040161241390613d45565b60405180910390fd5b505050565b6060600060016124308461272f565b01905060008167ffffffffffffffff81111561244f5761244e612fa9565b5b6040519080825280601f01601f1916602001820160405280156124815781602001600182028036833780820191505090505b509050600082602001820190505b6001156124e4578080600190039150507f3031323334353637383961626364656600000000000000000000000000000000600a86061a8153600a85816124d8576124d7613dbb565b5b0494506000850361248f575b819350505050919050565b6000808273ffffffffffffffffffffffffffffffffffffffff163b119050919050565b600073ffffffffffffffffffffffffffffffffffffffff168273ffffffffffffffffffffffffffffffffffffffff1603612581576040517f08c379a000000000000000000000000000000000000000000000000000000000815260040161257890613f87565b60405180910390fd5b61258a816120a4565b156125ca576040517f08c379a00000000000000000000000000000000000000000000000000000000081526004016125c190613ff3565b60405180910390fd5b6125d86000838360016120e5565b6125e1816120a4565b15612621576040517f08c379a000000000000000000000000000000000000000000000000000000000815260040161261890613ff3565b60405180910390fd5b6001600360008473ffffffffffffffffffffffffffffffffffffffff1673ffffffffffffffffffffffffffffffffffffffff16815260200190815260200160002060008282540192505081905550816002600083815260200190815260200160002060006101000a81548173ffffffffffffffffffffffffffffffffffffffff021916908373ffffffffffffffffffffffffffffffffffffffff160217905550808273ffffffffffffffffffffffffffffffffffffffff16600073ffffffffffffffffffffffffffffffffffffffff167fddf252ad1be2c89b69c2b068fc378daa952ba7f163c4a11628f55a4df523b3ef60405160405180910390a461272b6000838360016120eb565b5050565b600080600090507a184f03e93ff9f4daa797ed6e38ed64bf6a1f010000000000000000831061278d577a184f03e93ff9f4daa797ed6e38ed64bf6a1f010000000000000000838161278357612782613dbb565b5b0492506040810190505b6d04ee2d6d415b85acef810000000083106127ca576d04ee2d6d415b85acef810000000083816127c0576127bf613dbb565b5b0492506020810190505b662386f26fc1000083106127f957662386f26fc1000083816127ef576127ee613dbb565b5b0492506010810190505b6305f5e1008310612822576305f5e100838161281857612817613dbb565b5b0492506008810190505b612710831061284757612710838161283d5761283c613dbb565b5b0492506004810190505b6064831061286a57606483816128605761285f613dbb565b5b0492506002810190505b600a8310612879576001810190505b80915050919050565b50805461288e906132c3565b6000825580601f106128a057506128bf565b601f0160209004906000526020600020908101906128be9190612948565b5b50565b8280546128ce906132c3565b90600052602060002090601f0160209004810192826128f05760008555612937565b82601f1061290957805160ff1916838001178555612937565b82800160010185558215612937579182015b8281111561293657825182559160200191906001019061291b565b5b5090506129449190612948565b5090565b5b80821115612961576000816000905550600101612949565b5090565b6000604051905090565b600080fd5b600080fd5b60007fffffffff0000000000000000000000000000000000000000000000000000000082169050919050565b6129ae81612979565b81146129b957600080fd5b50565b6000813590506129cb816129a5565b92915050565b6000602082840312156129e7576129e661296f565b5b60006129f5848285016129bc565b91505092915050565b60008115159050919050565b612a13816129fe565b82525050565b6000602082019050612a2e6000830184612a0a565b92915050565b600081519050919050565b600082825260208201905092915050565b60005b83811015612a6e578082015181840152602081019050612a53565b83811115612a7d576000848401525b50505050565b6000601f19601f8301169050919050565b6000612a9f82612a34565b612aa98185612a3f565b9350612ab9818560208601612a50565b612ac281612a83565b840191505092915050565b60006020820190508181036000830152612ae78184612a94565b905092915050565b6000819050919050565b612b0281612aef565b8114612b0d57600080fd5b50565b600081359050612b1f81612af9565b92915050565b600060208284031215612b3b57612b3a61296f565b5b6000612b4984828501612b10565b91505092915050565b600073ffffffffffffffffffffffffffffffffffffffff82169050919050565b6000612b7d82612b52565b9050919050565b612b8d81612b72565b82525050565b6000602082019050612ba86000830184612b84565b92915050565b612bb781612b72565b8114612bc257600080fd5b50565b600081359050612bd481612bae565b92915050565b60008060408385031215612bf157612bf061296f565b5b6000612bff85828601612bc5565b9250506020612c1085828601612b10565b9150509250929050565b600080600060608486031215612c3357612c3261296f565b5b6000612c4186828701612bc5565b9350506020612c5286828701612bc5565b9250506040612c6386828701612b10565b9150509250925092565b612c7681612aef565b82525050565b6000602082019050612c916000830184612c6d565b92915050565b600080fd5b600080fd5b600080fd5b60008083601f840112612cbc57612cbb612c97565b5b8235905067ffffffffffffffff811115612cd957612cd8612c9c565b5b602083019150836001820283011115612cf557612cf4612ca1565b5b9250929050565b60008060208385031215612d1357612d1261296f565b5b600083013567ffffffffffffffff811115612d3157612d30612974565b5b612d3d85828601612ca6565b92509250509250929050565b6000610140820190508181036000830152612d64818d612a94565b9050612d73602083018c612c6d565b8181036040830152612d85818b612a94565b90508181036060830152612d99818a612a94565b90508181036080830152612dad8189612a94565b905081810360a0830152612dc18188612a94565b9050612dd060c0830187612c6d565b612ddd60e0830186612c6d565b612deb610100830185612c6d565b612df9610120830184612a0a565b9b9a5050505050505050505050565b6000612e1382612b52565b9050919050565b612e2381612e08565b8114612e2e57600080fd5b50565b600081359050612e4081612e1a565b92915050565b60008060408385031215612e5d57612e5c61296f565b5b6000612e6b85828601612e31565b9250506020612e7c85828601612b10565b9150509250929050565b600081519050919050565b600082825260208201905092915050565b6000612ead82612e86565b612eb78185612e91565b9350612ec7818560208601612a50565b612ed081612a83565b840191505092915050565b6000604082019050612ef06000830185612a0a565b8181036020830152612f028184612ea2565b90509392505050565b600060208284031215612f2157612f2061296f565b5b6000612f2f84828501612bc5565b91505092915050565b612f41816129fe565b8114612f4c57600080fd5b50565b600081359050612f5e81612f38565b92915050565b60008060408385031215612f7b57612f7a61296f565b5b6000612f8985828601612bc5565b9250506020612f9a85828601612f4f565b9150509250929050565b600080fd5b7f4e487b7100000000000000000000000000000000000000000000000000000000600052604160045260246000fd5b612fe182612a83565b810181811067ffffffffffffffff8211171561300057612fff612fa9565b5b80604052505050565b6000613013612965565b905061301f8282612fd8565b919050565b600067ffffffffffffffff82111561303f5761303e612fa9565b5b61304882612a83565b9050602081019050919050565b82818337600083830152505050565b600061307761307284613024565b613009565b90508281526020810184848401111561309357613092612fa4565b5b61309e848285613055565b509392505050565b600082601f8301126130bb576130ba612c97565b5b81356130cb848260208601613064565b91505092915050565b600080600080608085870312156130ee576130ed61296f565b5b60006130fc87828801612bc5565b945050602061310d87828801612bc5565b935050604061311e87828801612b10565b925050606085013567ffffffffffffffff81111561313f5761313e612974565b5b61314b878288016130a6565b91505092959194509250565b600067ffffffffffffffff82111561317257613171612fa9565b5b61317b82612a83565b9050602081019050919050565b600061319b61319684613157565b613009565b9050828152602081018484840111156131b7576131b6612fa4565b5b6131c2848285613055565b509392505050565b600082601f8301126131df576131de612c97565b5b81356131ef848260208601613188565b91505092915050565b6000806040838503121561320f5761320e61296f565b5b600083013567ffffffffffffffff81111561322d5761322c612974565b5b613239858286016131ca565b925050602061324a85828601612e31565b9150509250929050565b6000806040838503121561326b5761326a61296f565b5b600061327985828601612bc5565b925050602061328a85828601612bc5565b9150509250929050565b7f4e487b7100000000000000000000000000000000000000000000000000000000600052602260045260246000fd5b600060028204905060018216806132db57607f821691505b6020821081036132ee576132ed613294565b5b50919050565b7f4552433732313a20617070726f76616c20746f2063757272656e74206f776e6560008201527f7200000000000000000000000000000000000000000000000000000000000000602082015250565b6000613350602183612a3f565b915061335b826132f4565b604082019050919050565b6000602082019050818103600083015261337f81613343565b9050919050565b7f4552433732313a20617070726f76652063616c6c6572206973206e6f7420746f60008201527f6b656e206f776e6572206f7220617070726f76656420666f7220616c6c000000602082015250565b60006133e2603d83612a3f565b91506133ed82613386565b604082019050919050565b60006020820190508181036000830152613411816133d5565b9050919050565b7f4552433732313a2063616c6c6572206973206e6f7420746f6b656e206f776e6560008201527f72206f7220617070726f76656400000000000000000000000000000000000000602082015250565b6000613474602d83612a3f565b915061347f82613418565b604082019050919050565b600060208201905081810360008301526134a381613467565b9050919050565b7f4e487b7100000000000000000000000000000000000000000000000000000000600052601160045260246000fd5b60006134e482612aef565b91506134ef83612aef565b925082821015613502576135016134aa565b5b828203905092915050565b7f436f6e74726163742062616c616e6365206973207a65726f2e00000000000000600082015250565b6000613543601983612a3f565b915061354e8261350d565b602082019050919050565b6000602082019050818103600083015261357281613536565b9050919050565b600061358482612aef565b915061358f83612aef565b9250817fffffffffffffffffffffffffffffffffffffffffffffffffffffffffffffffff04831182151516156135c8576135c76134aa565b5b828202905092915050565b7f4552433732313a20696e76616c696420746f6b656e2049440000000000000000600082015250565b6000613609601883612a3f565b9150613614826135d3565b602082019050919050565b60006020820190508181036000830152613638816135fc565b9050919050565b7f4552433732313a2061646472657373207a65726f206973206e6f74206120766160008201527f6c6964206f776e65720000000000000000000000000000000000000000000000602082015250565b600061369b602983612a3f565b91506136a68261363f565b604082019050919050565b600060208201905081810360008301526136ca8161368e565b9050919050565b600081905092915050565b60008190508160005260206000209050919050565b600081546136fe816132c3565b61370881866136d1565b94506001821660008114613723576001811461373457613767565b60ff19831686528186019350613767565b61373d856136dc565b60005b8381101561375f57815481890152600182019150602081019050613740565b838801955050505b50505092915050565b600061377b82612a34565b61378581856136d1565b9350613795818560208601612a50565b80840191505092915050565b60006137ad82866136f1565b91506137b98285613770565b91506137c582846136f1565b9150819050949350505050565b7f7b226576656e746e616d65223a20220000000000000000000000000000000000600082015250565b6000613808600f836136d1565b9150613813826137d2565b600f82019050919050565b7f222c20226465736372697074696f6e223a20224576656e74207469636b65742260008201527f2c2022696d616765223a2022646174613a696d6167652f7376672b786d6c3b6260208201527f61736536342c0000000000000000000000000000000000000000000000000000604082015250565b60006138a06046836136d1565b91506138ab8261381e565b604682019050919050565b7f227d000000000000000000000000000000000000000000000000000000000000600082015250565b60006138ec6002836136d1565b91506138f7826138b6565b600282019050919050565b600061390d826137fb565b91506139198285613770565b915061392482613893565b91506139308284613770565b915061393b826138df565b91508190509392505050565b7f646174613a6170706c69636174696f6e2f6a736f6e3b6261736536342c000000600082015250565b600061397d601d836136d1565b915061398882613947565b601d82019050919050565b600061399e82613970565b91506139aa8284613770565b915081905092915050565b60006139c18285613770565b91506139cd8284613770565b91508190509392505050565b7f4f776e61626c653a206e6577206f776e657220697320746865207a65726f206160008201527f6464726573730000000000000000000000000000000000000000000000000000602082015250565b6000613a35602683612a3f565b9150613a40826139d9565b604082019050919050565b60006020820190508181036000830152613a6481613a28565b9050919050565b7f5469636b65742045787069726564000000000000000000000000000000000000600082015250565b6000613aa1600e83612a3f565b9150613aac82613a6b565b602082019050919050565b60006020820190508181036000830152613ad081613a94565b9050919050565b7f4552433732313a207472616e736665722066726f6d20696e636f72726563742060008201527f6f776e6572000000000000000000000000000000000000000000000000000000602082015250565b6000613b33602583612a3f565b9150613b3e82613ad7565b604082019050919050565b60006020820190508181036000830152613b6281613b26565b9050919050565b7f4552433732313a207472616e7366657220746f20746865207a65726f2061646460008201527f7265737300000000000000000000000000000000000000000000000000000000602082015250565b6000613bc5602483612a3f565b9150613bd082613b69565b604082019050919050565b60006020820190508181036000830152613bf481613bb8565b9050919050565b7f4f776e61626c653a2063616c6c6572206973206e6f7420746865206f776e6572600082015250565b6000613c31602083612a3f565b9150613c3c82613bfb565b602082019050919050565b60006020820190508181036000830152613c6081613c24565b9050919050565b7f4552433732313a20617070726f766520746f2063616c6c657200000000000000600082015250565b6000613c9d601983612a3f565b9150613ca882613c67565b602082019050919050565b60006020820190508181036000830152613ccc81613c90565b9050919050565b7f4552433732313a207472616e7366657220746f206e6f6e20455243373231526560008201527f63656976657220696d706c656d656e7465720000000000000000000000000000602082015250565b6000613d2f603283612a3f565b9150613d3a82613cd3565b604082019050919050565b60006020820190508181036000830152613d5e81613d22565b9050919050565b6000613d7082612aef565b9150613d7b83612aef565b9250827fffffffffffffffffffffffffffffffffffffffffffffffffffffffffffffffff03821115613db057613daf6134aa565b5b828201905092915050565b7f4e487b7100000000000000000000000000000000000000000000000000000000600052601260045260246000fd5b6000613df582612aef565b9150613e0083612aef565b925082613e1057613e0f613dbb565b5b828204905092915050565b7f45524337323155524953746f726167653a2055524920736574206f66206e6f6e60008201527f6578697374656e7420746f6b656e000000000000000000000000000000000000602082015250565b6000613e77602e83612a3f565b9150613e8282613e1b565b604082019050919050565b60006020820190508181036000830152613ea681613e6a565b9050919050565b6000608082019050613ec26000830187612b84565b613ecf6020830186612b84565b613edc6040830185612c6d565b8181036060830152613eee8184612ea2565b905095945050505050565b600081519050613f08816129a5565b92915050565b600060208284031215613f2457613f2361296f565b5b6000613f3284828501613ef9565b91505092915050565b7f4552433732313a206d696e7420746f20746865207a65726f2061646472657373600082015250565b6000613f71602083612a3f565b9150613f7c82613f3b565b602082019050919050565b60006020820190508181036000830152613fa081613f64565b9050919050565b7f4552433732313a20746f6b656e20616c7265616479206d696e74656400000000600082015250565b6000613fdd601c83612a3f565b9150613fe882613fa7565b602082019050919050565b6000602082019050818103600083015261400c81613fd0565b905091905056fe4142434445464748494a4b4c4d4e4f505152535455565758595a6162636465666768696a6b6c6d6e6f707172737475767778797a303132333435363738392b2fa264697066735822122028fd9a91872f818c22d66a0b94a0ef073061e142384b6f9037a32299be60c3b764736f6c634300080d00333c73766720786d6c6e733d22687474703a2f2f7777772e77332e6f72672f323030302f737667222077696474683d2232373022206865696768743d22323730222066696c6c3d226e6f6e65223e3c706174682066696c6c3d2275726c282361292220643d224d302030683237307632373048307a222f3e3c646566733e3c66696c7465722069643d22622220636f6c6f722d696e746572706f6c6174696f6e2d66696c746572733d2273524742222066696c746572556e6974733d227573657253706163654f6e55736522206865696768743d22323730222077696474683d22323730223e3c666544726f70536861646f772064783d2230222064793d22312220737464446576696174696f6e3d22322220666c6f6f642d6f7061636974793d222e323235222077696474683d223230302522206865696768743d2232303025222f3e3c2f66696c7465723e3c2f646566733e3c7061746820643d224d37322e3836332034322e39343961342e33383220342e3338322030203020302d342e33393420306c2d31302e30383120362e3033322d362e383520332e3933342d31302e30383120362e30333261342e33383220342e3338322030203020312d342e33393420306c2d382e3031332d342e37323161342e353220342e35322030203020312d312e3538392d312e36313620342e353420342e35342030203020312d2e3630382d322e313837762d392e333161342e323720342e3237203020302031202e3537322d322e32303820342e323520342e323520302030203120312e3632352d312e3539356c372e3838342d342e353961342e33383220342e33383220302030203120342e33393420306c372e38383420342e353961342e353220342e353220302030203120312e35383920312e36313620342e353420342e3534203020302031202e36303820322e31383776362e3033326c362e38352d342e303635762d362e30333261342e323720342e32372030203020302d2e3537322d322e32303820342e323520342e32352030203020302d312e3632352d312e3539354c34312e3435362032342e353961342e33383220342e3338322030203020302d342e33393420306c2d31342e38363420382e36353561342e323520342e32352030203020302d312e36323520312e35393520342e32373320342e3237332030203020302d2e35373220322e3230387631372e34343161342e323720342e3237203020302030202e35373220322e32303820342e323520342e323520302030203020312e36323520312e3539356c31342e38363420382e36353561342e33383220342e33383220302030203020342e33393420306c31302e3038312d352e39303120362e38352d342e3036352031302e3038312d352e39303161342e33383220342e33383220302030203120342e33393420306c372e38383420342e353961342e353220342e353220302030203120312e35383920312e36313620342e353420342e3534203020302031202e36303820322e31383776392e33313161342e323720342e32372030203020312d2e35373220322e32303820342e323520342e32352030203020312d312e36323520312e3539356c2d372e38383420342e37323161342e33383220342e3338322030203020312d342e33393420306c2d372e3838342d342e353961342e353220342e35322030203020312d312e3538392d312e36313620342e353320342e35332030203020312d2e3630382d322e313837762d362e3033326c2d362e383520342e30363576362e30333261342e323720342e3237203020302030202e35373220322e32303820342e323520342e323520302030203020312e36323520312e3539356c31342e38363420382e36353561342e33383220342e33383220302030203020342e33393420306c31342e3836342d382e36353561342e35343520342e35343520302030203020322e3139382d332e3830335635352e35333861342e323720342e32372030203020302d2e3537322d322e32303820342e323520342e32352030203020302d312e3632352d312e3539356c2d31342e3939332d382e3738367a222066696c6c3d2223666666222f3e3c646566733e3c6c696e6561724772616469656e742069643d2261222078313d2230222079313d2230222078323d22323730222079323d2232373022206772616469656e74556e6974733d227573657253706163654f6e557365223e3c73746f702073746f702d636f6c6f723d2223303046463041222f3e3c73746f70206f66667365743d2231222073746f702d636f6c6f723d2223463946453039222f3e3c2f6c696e6561724772616469656e743e3c2f646566733e3c7465787420783d2233322e352220793d223233312220666f6e742d73697a653d223237222066696c6c3d2223666666222066696c7465723d2275726c282362292220666f6e742d66616d696c793d22506c7573204a616b617274612053616e732c44656a6156752053616e732c4e6f746f20436f6c6f7220456d6f6a692c4170706c6520436f6c6f7220456d6f6a692c73616e732d73657269662220666f6e742d7765696768743d22626f6c64223e",
  "linkReferences": {},
  "deployedLinkReferences": {}
}